:020000040800F2
:1000000090940020292F0008210B0008230B0008E2
:10001000250B0008270B0008290B00080000000032
:100020000000000000000000000000002B0B000892
:100030002D0B000800000000E3CC000891550008DB
:10004000432F0008432F0008432F00083F270008D4
:10005000432F0008432F0008432F0008432F0008B8
:10006000432F0008432F0008432F0008432F0008A8
:10007000432F0008432F0008432F0008432F000898
:10008000432F0008432F0008432F0008432F000888
:10009000432F0008432F0008432F0008130A0008CD
:1000A000432F00081D290008432F0008432F000894
:1000B0004929000875290008432F0008432F00082C
:1000C000432F0008432F0008432F0008432F000848
:1000D000432F0008470A0008212A0008352C000891
:1000E000432F000861270008432F0008432F000812
:1000F000A1290008432F0008432F0008432F0008C0
:10010000432F0008432F0008432F0008432F000807
:10011000432F0008432F0008432F0008CD29000873
:10012000432F0008432F0008432F0008432F0008E7
:10013000432F0008432F0008432F0008432F0008D7
:10014000432F0008432F0008432F0008432F0008C7
:10015000432F0008432F0008432F0008432F0008B7
:10016000432F0008432F0008432F0008432F0008A7
:10017000432F0008432F0008432F0008432F000897
:10018000432F0008432F000800F002F800F0B2F8F7
:100190000AA090E8000C82448344AAF10107DA45E2
:1001A00001D100F0A7F8AFF2090EBAE80F0013F082
:1001B000010F18BFFB1A43F0010318474CD500008C
:1001C0006CD500000A444FF0000C10F8013B13F00E
:1001D000070408BF10F8014B1D1108BF10F8015BA0
:1001E000641E05D010F8016B641E01F8016BF9D193
:1001F00013F0080F1EBF10F8014BAD1C0C1B09D1EA
:100200006D1E58BF01F801CBFAD505E014F8016B5B
:1002100001F8016B6D1EF9D59142D6D370470000ED
:100220000023002400250026103A28BF78C1FBD8FF
:10023000520728BF30C148BF0B6070476E290BF0D2
:100240005B8270290BF0398066290CF0D685652910
:100250000CF0D38567290CF0D08561290CF0CF858F
:1002600003681B0A28BF41F0800169290AF0AA87A8
:1002700064290AF0A78775290AF0A4876F290BF073
:100280003D8378290BF00580E9290BF0D782E4291A
:100290000BF0D482F5290BF0D182EF290BF03A83D1
:1002A000F8290BF004800368DB0928BF41F08001C6
:1002B00063290BF0A18773290BF0A687E3290BF0C4
:1002C000B187F3290BF0B687002070471FB50CF0FB
:1002D0008FFD0CF069F80400002000210CF05CFD9B
:1002E000401C6060002000210CF06CFDE0601FBD30
:1002F00010B510BD0CF033F81146FFF7E7FF00F022
:10030000FBFA0CF011F903B4FFF7F2FF03BC01F0A4
:1003100045FB00000EB5002002ACCDE9000402460A
:1003200008230121FD4807F080F802F0BFFD4FF4DB
:10033000FA650023F9481A4619462830009408F057
:10034000A9FD01F07DFEF6A20221082001F0FBFECE
:1003500002F0C3FD284605F06EF902F0D1FD02A9B6
:10036000F14809F085FEE4E78EB000200CAECDE93F
:100370000006024608230121E84807F056F8EB4D35
:100380004FF47A782C1D1027404605F054F9E749C0
:10039000002004F0AEF9E5490020091D04F021FA1F
:1003A0000023DE481A4619462C38009607F030FF25
:1003B00001F046FEA87800906B782A78DCA107A8A7
:1003C0000AF0C2FE07AA0321232001F0BCFE6278D6
:1003D000DBA102A80AF0B8FE02AA0021252001F044
:1003E000B2FE08220021352001F0C4FEA278D4A17B
:1003F00002A80AF0A9FE02AA0021452001F0A3FEEE
:1004000009220021552001F0B5FE0A2206212C20E8
:1004100001F0B0FE0B2206213C2001F0ABFE00975C
:10042000227801230621502001F05CFEBB480CAA73
:1004300000212C3808F043F8A6E701F02BFCFCE77C
:1004400088B000240294039405AB22460121B348EE
:10045000049407F03BFADFF8D482BB4F4FF4FA6AFA
:10046000A8F1040805AE4FF001094FF4FA7BAB4840
:1004700005AA00212C3808F022F8A848CDE900464A
:10048000002206AB11465C3808F046FA0500EED0B3
:100490000023A2481A4619462C38009607F0B8FEE9
:1004A00002A80AF0FFFF02280DD8A8A128460BF0E9
:1004B00047F820B1A6A128460BF042F818B9294602
:1004C00002A80BF00EF8A3A102A80BF039F800283F
:1004D00040D0A1A128460BF033F8002847D0A1A1B5
:1004E00028460BF02DF800284BD098A128460BF099
:1004F00027F80028BBD096A128460BF021F8002849
:10050000B5D0294602A80AF0ECFF8448CDE90046A0
:10051000002206AB11465C3808F0FEF9054694A1AE
:100520000BF00EF80028A2D002A80AF0BBFF0528A5
:100530005DD8294602A80AF0D4FF01F081FD8DA202
:1005400002211E2001F0FFFD02AA06211E2001F05B
:10055000FAFDDAE701F074FD89A20221082001F01A
:10056000F2FD504605F067F801F07AFF4DE001F02A
:10057000B2F986A10AF0E4FF00287FF478AF85A0E5
:1005800052E0664889A17C380AF07AFF0028B1D091
:10059000624887A17C380AF06DFF85A100200AF02F
:1005A00069FF01F02EFF054678A10AF0C9FF78B176
:1005B00001F046FD7FA20321182001F0C4FD029442
:1005C00003945046049405F036F8C8F800404EE70E
:1005D000C7F8A092584605F02EF8C7F8A04220218F
:1005E00028460AF08AFFC8F8004074A01CE002A860
:1005F00001F007FF65A10AF0A3FF50B101F020FD53
:100600006CA20321182001F09EFD0294039404942F
:100610002DE7C7F8A092584605F00DF8C7F8A0429C
:10062000029403946AA0049401F007FA3B4805AAD7
:100630000021283008F08AFD05A93B4809F0AFFAEF
:1006400015E71CB501A9674809F012FD01A9664824
:1006500009F00EFD01A9654809F00AFD01A932481B
:1006600009F006FD00F022FB01F07EF94FF4165070
:1006700001F09CF94FF4614002F0FAF901F0FAF947
:1006800001F08CFA01F0C3FF01F0B7FD01F0D8FCD6
:1006900057A20021082001F056FD4FF4FA7004F033
:1006A000CAFF01F0CDFC56A20221182001F04BFD3B
:1006B00056A20421182001F046FD4FF4FA6004F020
:1006C000BAFF01F0BDFC4FF4C8740AE0204604F004
:1006D000B2FF51A20221102001F035FD204604F0A6
:1006E000AAFF514800F0E3FD0028EFD101F0A8FC7B
:1006F0004EA20221102001F026FD4FF47A7420460C
:1007000004F099FF01F09CFC4B4800F0ADFD08B1EE
:1007100000F040FE494800F0A1FC91E0D404002024
:100720006F70656E0000000034100020040000208F
:10073000253032643A253032643A25303264000084
:100740002530326400000000008042424100000079
:10075000430000004143430046696E676572507272
:10076000696E7400426C7565746F6F746800000088
:100770004200000070617373776F72643A0000008A
:10078000456E74657220526F6F74210073756363D8
:100790006573730046696E6765725072696E742086
:1007A000756E6C6F636B210A0000000050570000EB
:1007B0002D000000636C6F7365000000426C75656E
:1007C000746F6F746820756E6C6F636B210A000024
:1007D00050617373776F726420756E6C6F636B21F9
:1007E0000A000000E8070020AC0A0020700D00207D
:1007F000496E697420537563636573736564210082
:10080000536D617274206C6F636B000062793A20E3
:10081000756E6B696D000000636F6E6E6563746961
:100820006E672E2E2E00000024000020636F6E6E77
:10083000656374656400000020000020F812002049
:10084000C8B100F0A7FD204604F0F5FE01A99448C8
:1008500009F0A5F901A9934809F0A1F901A9924865
:1008600009F09DF901A9914809F099F901A9002021
:1008700008F096FEFEE700220221104601F07AFC05
:1008800001220221102001F075FC022211462020D5
:1008900001F070FC07220221302001F06BFC1025D2
:1008A000834E84490095308809880323421A022127
:1008B000402001F017FC03220421002001F05AFC23
:1008C00004221146102001F055FC052204212020AD
:1008D00001F050FC06220421302001F04BFC0722DD
:1008E0000421402001F046FC0095B2780123042148
:1008F000502001F0F7FBA6E78AB004F057FE4FF452
:10090000A06002F031FB09A805F0EDFF002409AD5D
:10091000059406940C276848CDE90745CDE9010701
:10092000802604202346AFF2E52200906248CDE9FC
:10093000036462A1C43808F05AFD5948059406942E
:10094000C430CDE90745CDE9010706200023AFF209
:100950000F520090CDE903645CA1514808F047FDB7
:1009600050480594C4300694CDE907454FF0070878
:100970000023AFF23952CDF80080CDE90107CDE96F
:10098000036454A1C43808F032FD47480594C430CC
:100990000694CDE907450023AFF23362CDF800801D
:1009A000CDE90107CDE903644CA1C43808F01FFD6F
:1009B0003E480594C4300694CDE907450023AFF2C4
:1009C000AB62CDF80080CDE90107CDE9036445A114
:1009D000C43808F00CFD09AB402244A1454807F09B
:1009E00080FE444809AA44A1303007F0D0FA4148BB
:1009F00009AB002242A1843008F07BF93D4809ABE5
:100A0000002241A15C3006F008FC09A806F0C6F8F7
:100A1000FEE71CB54FF40074204604F0A7FD012842
:100A20000DD121463B4801F024F940B1002301A833
:100A30000B22AFF2DC2100902E4808F0F0F820469F
:100A400004F09DFD1CBD7CB505F0CFFF324C40F29B
:100A500025552946204602F0DAFF01281DD12046FF
:100A600002F03EFF2D4BC2B2224819682038425492
:100A70001868401C1860232A02D01868202808D360
:100A8000002301A80922AFF224310090194808F090
:100A9000C6F82946204602F0D9FF05F0B1FF7CBD1B
:100AA000E8070020AC0A0020700D00203410002060
:100AB000F812002020000020E80500205461736B2C
:100AC000496E69745F544342000000005461736BC7
:100AD000310000005461736B320000005461736B8D
:100AE000330000005461736B34000000675F717560
:100AF0006575650078040020675F6D757465780022
:100B0000675F73656D000000675F666C61675F67B4
:100B10007270000000180240001001400000002028
:100B20007047FEE7FEE7FEE7FEE77047704700000C
:100B30000CB50022544900920192086840F48030BC
:100B400008604FF4A043086800F40030019000985A
:100B5000401C0090019810B900989842F3D10868A1
:100B6000800334D50120019047484030026842F0AC
:100B7000805202604548026842F4404202604248A6
:100B8000083002680260026842F4004202600268B3
:100B900042F4A0520260031F3D4A1A600A6842F004
:100BA00080720A600A689201FCD53A4940F20572E7
:100BB0000A60016821F003010160016841F002014F
:100BC00001600168C1F381010229FAD10CBD0192D3
:100BD0000CBD314810B5016841F4700101602A482C
:100BE000016841F001010160274A002108321160CB
:100BF00002682A4B1A400260031D294A1A600268E3
:100C000022F48022026020480C300160FFF790FF40
:100C100021494FF000608039086010BD70B51A4D51
:100C2000083528681F4B204910F00C0004D05E10D6
:100C3000042803D0082803D00B601BE00E6019E0E5
:100C4000114A121D1068C0F38054106800F03F0074
:100C500014B1B6FBF0F001E0B3FBF0F013681268DA
:100C6000C3F388135843C2F30142521C5200B0FB35
:100C7000F2F0086028680C4AC0F30310121D105CE3
:100C80000A68C2400A6070BD00380240007000402F
:100C900008544007003C024088ED00E0FFFFF6FEEC
:100CA000103000240024F4000C0000202DE9FC4743
:100CB0000121302002F01FFC01248DF804400026A1
:100CC0008DF806600327DFF850904FF4C0658DF86B
:100CD000057000958DF807406946484602F008FA0D
:100CE0008DF804408DF806608DF805708DF807408A
:100CF0000A4C4FF4C048CDF800806946204602F007
:100D0000F7F92946484602F058FA4146204602F0D3
:100D100054FABDE8FC8700000014024000100240B5
:100D20001CB50121402002F0E6FB4FF4007000905A
:100D300000208DF8040002208DF8070003208DF8B4
:100D400005006946F74802F0D3F91CBD10B5F64C12
:100D50006068000E00F0DEFD6068C0F3074000F040
:100D6000D9FDA088C0F3072000F0D4FD2079BDE8AC
:100D7000104000F0CFBD7CB50446EF208DF8000098
:100D800001208DF80100E848E84E4068010E8DF81A
:100D90000210010C8DF80310010A8DF804108DF873
:100DA000050007208DF8060000258DF807503580D6
:100DB0000CE0012004F03FFC3088000406D53580AB
:100DC0006946DB480AF05CFB002804D1641E240459
:100DD000240CEED100207CBD10B500F0A3FDFFF780
:100DE000B5FF012000F096FD032000F0A3FD0120D7
:100DF00000F090FD052000F0A7FD4FF4FA60FFF72A
:100E0000BAFF08B1407A10BDFF2010BD10B50446EE
:100E100000F088FDFFF79AFF012000F07BFD042021
:100E200000F088FD022000F075FD204600F072FD04
:100E3000E01D00F089FD4FF4FA60FFF79CFF08B158
:100E4000407A10BDFF2010BD10B500F06BFDFFF71C
:100E50007DFF012000F05EFD032000F06BFD03200C
:100E600000F058FD072000F06FFD4FF4FA60FFF727
:100E700082FF08B1407A10BDFF2010BD2DE9F0417E
:100E80001E4614460D46074600F04CFDFFF75EFF78
:100E9000012000F03FFD082000F04CFD042000F090
:100EA00039FD384600F036FD280A00F033FDE8B27F
:100EB00000F030FD200A00F02DFDE0B200F02AFD28
:100EC00007EB1520E9B2084400EB1420E1B2084416
:100ED0000D3000F039FD4FF4FA60FFF74CFF58B1C8
:100EE000C27A837A417A02EB03223280427B007B12
:100EF00002EB0020708000E0FF210846BDE8F08191
:100F000010B500F00FFDFFF721FF012000F002FDFA
:100F1000032000F00FFD052000F0FCFC092000F08C
:100F200013FD4FF4FA60FFF726FF08B1407A10BDB9
:100F3000FF2010BD70B50C46054600F0F3FCFFF72E
:100F400005FF012000F0E6FC062000F0F3FC06207F
:100F500000F0E0FC284600F0DDFC200A00F0DAFC9E
:100F6000E0B200F0D7FC05EB1420E1B208440D30EC
:100F700000F0EAFC4FF4FA60FFF7FDFE08B1407A9A
:100F800070BDFF2070BD70B50C46054600F0CAFC70
:100F9000FFF7DCFE012000F0BDFC072000F0CAFCDA
:100FA0000C2000F0B7FC2E0A304600F0B3FCE8B28B
:100FB00000F0B0FC200A00F0ADFCE0B200F0AAFCAA
:100FC00056FA85F000EB1420E1B20844143000F02A
:100FD000BBFC4FF4FA60FFF7CEFE08B1407A70BD5B
:100FE000FF2070BD10B500F09DFCFFF7AFFE0120A3
:100FF00000F090FC032000F09DFC0D2000F08AFC26
:10100000112000F0A1FC4FF4FA60FFF7B4FE08B124
:10101000407A10BDFF2010BD70B50C46054600F0AB
:1010200081FCFFF793FE012000F074FC052000F026
:1010300081FC0E2000F06EFC284600F06BFC204680
:1010400000F068FC2819143000F07EFC4FF4FA60C0
:10105000FFF791FE002800D0407A70BD70B50446BD
:1010600000F060FCFFF772FE012000F053FC03204B
:1010700000F060FC0F2000F04DFC132000F064FC39
:101080004FF47A70FFF777FEC8B1C27B837B417A59
:1010900002EB03222280427CA270427D837C057D8C
:1010A00002EB0362C37C1B0403EB05231A4462605A
:1010B000C27D2272407E6072002902D000E0FF21D2
:1010C000084670BD70B5044600F02CFCFFF73EFEEC
:1010D000012000F01FFC072000F02CFC152000F080
:1010E00019FC200E00F016FCC4F30740054600F082
:1010F00011FCC4F30720064600F00CFCE0B200F03F
:1011000009FC05EB14603044E1B208441D3000F0E6
:101110001BFC054D4FF4FA606C60FFF72CFE48B1E4
:10112000407A08E0001802402000002068030020F8
:10113000D0140020FF206C6070BD2DE9F0410E46F8
:10114000074600F0EFFBFFF701FE012000F0E2FB95
:10115000242000F0EFFB182000F0DCFB384600F004
:10116000D9FB0024305D00F0D5FB305D641C2844C1
:10117000E4B285B2202CF5D378193D3080B200F06E
:10118000E3FB4FF4FA60FFF7F6FD08B1407AB5E6ED
:10119000FF20B3E670B50C46054600F0C3FBFFF731
:1011A000D5FD012000F0B6FB042000F0C3FB1920A0
:1011B00000F0B0FB284600F0ADFB05F11E0000F08A
:1011C000C3FB4FF4FA60FFF7D6FD48B1417A002225
:1011D00083189B7AA354521CD2B2202AF8D300E081
:1011E000FF21084670BD2DE9F0411E4614460D460C
:1011F000074600F097FBFFF7A9FD012000F08AFBEE
:10120000082000F097FB1B2000F084FB384600F01C
:1012100081FB280A00F07EFBE8B200F07BFB200A8D
:1012200000F078FBE0B200F075FB07EB1520E9B2A7
:10123000084400EB1420E1B20844243000F084FBA1
:101240004FF4FA60FFF797FD58B1C27A837A417A7A
:1012500002EB03223280427B007B02EB0020708095
:1012600000E0FF21084649E610B5044600F05AFBAD
:10127000FFF76CFD012000F04DFB032000F05AFB4E
:101280001D2000F047FB212000F05EFB4FF4FA60C8
:10129000FFF771FD40B1417AC27A807A002902EBF2
:1012A0000020208002D000E0FF21084610BD70B56C
:1012B000044600F037FBFFF749FD012000F02AFB50
:1012C000002000F027FB002000F024FBC82004F0E1
:1012D000B2F9C14A108800040BD5C04900200B7830
:1012E000EF2B05D14B78012B02D18B79072B02D044
:1012F0001080012070BD4B798D7803EB0563CD78AC
:1013000009792D0405EB012119442160108000208A
:1013100070BD21283CD2DFE800F011131517191B0E
:101320001D1F212325273B3B3B3B27293B3B3B2BD9
:101330003B3B2D2F3133353B3B373900A8A070475D
:10134000A8A07047ABA07047AFA07047B3A070478C
:10135000BAA07047C1A07047C7A07047D4A070471B
:10136000D6A07047D9A07047DCA07047DFA07047B7
:10137000E2A07047EAA07047EDA07047EFA0704769
:10138000F2A07047F6A07047FAA07047FCA0704723
:10139000FEA0704710B50246FFF7BBFF092A0CD12B
:1013A00000F04EFEFEA20021082000F0CCFEBDE8B9
:1013B00010404FF4FA6004F03EB910BD70B588B02B
:1013C00000240294039405AD0494002206AB114658
:1013D000F648CDE9004507F09FFA0646F4A10AF069
:1013E000AFF8E8B1F3A130460AF0AAF808B3F2A1C9
:1013F00030460AF0A5F868B1F0A130460AF0A0F82E
:1014000040B102A80AF04EF8022803D8314602A8DB
:101410000AF067F802AA0321342000F094FED4E712
:1014200002940394E6A203212820049400F08BFE8A
:10143000F0E702A80AF010F808B080B270BD2DE9FC
:10144000F84F0024E04EDFF8849327464FF0010860
:101450004FF4966A052C5FD2DFE804F00323447250
:1014600089006D1CEDB200F0EBFDD9A2002108202F
:1014700000F069FEFFF7B0FC002830D1C6F8A0826A
:101480000120FFF7C3FCC6F8A072002827D100F0A6
:10149000D7FDD7A20021082000F055FE0025012429
:1014A0003AE06D1CEDB200F0CBFDD5A20021082082
:1014B00000F049FEFFF790FC88B9C6F8A082022030
:1014C000FFF7A4FCC6F8A07248B900F0B9FDD1A29C
:1014D0000021082000F037FE002502241CE0FFF761
:1014E00059FF19E000F0ACFDCFA20021082000F068
:1014F0002AFEFFF7A9FC040019D000F0A1FDCDA23F
:101500000021082000F01FFE2046FFF743FF0025C2
:101510002C46504604F08FF84FF4C87004F08BF856
:10152000052D97D100F08CFD0020BDE8F88F00F06C
:1015300087FDC4A20021082000F005FE0324E8E78F
:1015400000F07EFDC3A20021082000F0FCFDFFF7A3
:10155000D7FC18B10024FFF71DFFDAE700F070FD9B
:10156000C3A20021082000F0EEFD0424D1E700F022
:1015700067FDC4A20021082000F0E5FDC5A20221FC
:10158000082000F0E0FD4C46FFF718FF01462088D8
:101590008842F9D90220FFF7CDFC08B100249EE76C
:1015A00000F04EFDBFA20021082000F0CCFDC34892
:1015B000FFF75AFEC2A20221082000F0C4FD10204D
:1015C000BE490090B9F8000009880523421A042199
:1015D000082000F087FD79E168030020D014002086
:1015E0004F4B0000CAFDBEDDB0FCBDD3CAD5B4ED83
:1015F000CEF30000B4ABB8D0C6F7C9CFC3BBD3D0CD
:10160000CAD6D6B800000000C2BCC8EBD6B8CEC659
:10161000CDBCCFF1CAA7B0DC00000000D6B8CEC662
:10162000CDBCCFF1CCABB8C9A1A2CCABB5ADB6F8AF
:10163000C9FAB2BBB3C9CCD8D5F70000D6B8CEC66C
:10164000CDBCCFF1CCABCAAAA1A2CCABBAFDB6F847
:10165000C9FAB2BBB3C9CCD8D5F70000D6B8CEC64C
:10166000CDBCCFF1CCABC2D2B6F8C9FAB2BBB3C9CC
:10167000CCD8D5F700000000D6B8CEC6CDBCCFF18F
:10168000D5FDB3A3A3ACB5ABCCD8D5F7B5E3CCAB04
:10169000C9D9A3A8BBF2C3E6BBFDCCABD0A1A3A91B
:1016A000B6F8C9FAB2BBB3C9CCD8D5F70000000070
:1016B000D6B8CEC6B2BBC6A5C5E40000C3BBCBD16D
:1016C000CBF7B5BDD6B8CEC600000000CCD8D5F754
:1016D000BACFB2A2CAA7B0DC00000000C9BEB3FDF9
:1016E000C4A3B0E5CAA7B0DC00000000C7E5BFD5C1
:1016F000D6B8CEC6BFE2CAA7B0DC0000BBBAB3E51D
:10170000C7F8C4DAC3BBD3D0D3D0D0A7D4ADCABC3A
:10171000CDBCB6F8C9FAB2BBB3C9CDBCCFF100009D
:10172000B6C1D0B420464C41534820B3F6B4ED00C6
:10173000CEB4B6A8D2E5B4EDCEF30000CEDED0A78D
:10174000BCC4B4E6C6F7BAC500000000BCC4B4E629
:10175000C6F7C9E8B6A8C4DAC8DDB4EDCEF3000018
:10176000BCC7CAC2B1BED2B3C2EBD6B8B6A8B4ED3C
:10177000CEF30000D6B8CEC6BFE2C2FA0000000029
:10178000B5D8D6B7B4EDCEF300000000C4A3BFE9CE
:10179000B7B5BBD8C8B7C8CFC2EBD3D0CEF3000023
:1017A0004153363038204572726F21007804002092
:1017B000430000004400000041000000420000001F
:1017C000202020202020000000804242F81200202B
:1017D000506C656173652070726573732074686501
:1017E0002066696E6765727072696E740000000031
:1017F00046697273742073756363657373000000C8
:10180000506C6561736520707265737320616761E8
:10181000696E00005365636F6E6461727920737541
:101820006363657373000000436F6D706172696E6E
:1018300067000000436F6D70617265206661696CBE
:1018400000000000436F6D70617265207375636303
:101850006573730047656E65726174652066696EB5
:101860006765727072696E74206D6F64756C650067
:1018700047656E6572617465207375636365737324
:1018800000000000506C6561736520656E746572C0
:1018900020494400303D3C204944203C3D32393908
:1018A00000000000456E74657265642073756363A3
:1018B00065737366756C6C79000000002000002071
:1018C00043617061636974790000000040F2DC508C
:1018D00003F0B1FE26E638B5AFF22014FFF77CFA2C
:1018E00098B91E4D0120C5F8A00205F52875FFF72F
:1018F0008DFA0021296030B919486B460288012011
:10190000FFF771FC18B1FFF745FD204638BDAFF277
:10191000C404FAE713490A885206FCD51149091D87
:101920000880704710B5EF20FFF7F4FFBDE81040C6
:101930000120EFE710B50446C0F30720FFF7EAFFE8
:10194000E0B2BDE81040E5E710B50446000AFFF735
:10195000E1FFE0B2BDE81040DCE700000080424259
:10196000F8120020004400401CB50121202001F0A5
:10197000C2FD4FF48070009001208DF80400032018
:101980008DF8050000208DF806008DF807006946E7
:10199000014801F0ADFB1CBD001402407047314905
:1019A0000A885206FCD5C2B28A8070472DE9F04100
:1019B00006460121102001F0C6FD0121084601F074
:1019C0009AFD29484FF4C061022501600571032189
:1019D000417100248471254FC4710146384601F0DD
:1019E00087FB07220921384601F0F6FB07220A216E
:1019F000384601F0F1FB1E490C200E608C80CC8033
:101A00000C818C81174C4881204601F0CEFE0122CA
:101A100040F22551204601F0D8FF0121204601F077
:101A200035FF11482521001F017045708570012187
:101A3000C170BDE8F04101F09CBA70B50446094D93
:101A400009E0284601F048FF8021284601F0D5FF33
:101A50000028F9D0641C002C02D021780029F0D194
:101A600070BD0000001001402C000020000002406A
:101A70000413002070B50121880301F064FD0121E9
:101A8000402001F038FD12484FF400750026056033
:101A900006710224C47101460E4801F029FB092198
:101AA000062001F011FE0A480821083005600125D2
:101AB00085710671417103F009FD05481721001F6A
:101AC0000170C57044708470BDE8704001F051BA77
:101AD0003C0000200018024010B503F0A5FA0221D6
:101AE000202003F0E0FA092800D0FEE7BDE810400E
:101AF00003F0A6BA10B503F097FA0221282003F0EC
:101B0000D2FA092800D0FEE7BDE8104003F098BAE9
:101B100010B503F089FA0221302003F0C4FA092835
:101B200000D0FEE7BDE8104003F08ABA70B50C465D
:101B3000054603F079FA2146284603F08CFB092874
:101B400000D0FEE7BDE8704003F07ABA2DE9F0411D
:101B500015460E460746002403F066FA07E0315D9D
:101B6000381903F0B2FB092800D0FEE7641CAC4230
:101B7000F5D3BDE8F04103F063BA002201E08358D9
:101B8000121DB2EB810FFAD3704710B5002302E0AB
:101B9000C458CC545B1C9342FAD310BD2DE9FC41D0
:101BA0000121032001F0A7FC0121442001F0A3FC46
:101BB0000121102001F09FFC00208DF804008DF819
:101BC000060003208DF805000220D74E80248DF8F2
:101BD000070000946946304601F08AFA1020D34F7E
:101BE00000906946384601F083FA20020090694669
:101BF000CF4801F07DFACF4D69462846009401F0A8
:101C000077FAA000012400908DF804408DF8074079
:101C10006946284601F06CFA402569463046009531
:101C200001F066FA6946C448009501F061FA2002A5
:101C300000906946384601F05BFAC048C0F8A442FB
:101C4000BF48C0F89842BF48C0F89842BE48C0F8A4
:101C5000A042BDE8FC81B9490120C1F8A402B849FD
:101C6000C1F89802B749C1F89802B749C1F8A00273
:101C7000704770B50C46054601F08BFA40B91E203E
:101C800003F0D9FC2146284601F083FA002800D051
:101C9000012070BD2DE9F84FA34E8021304601F0A0
:101CA00078FAAA4CDFF894B2DFF89482DFF89492C5
:101CB000DFF894A20025A8B3474680213046FFF7FD
:101CC000D8FF48B3142003F0B6FCCBF8A45280210F
:101CD000304601F05EFA002868D0C7F89852D7F86D
:101CE0001C0200286BD0C9F898528021304601F0C0
:101CF00050FA002868D0CAF8A0528021304601F07E
:101D000048FA0028D9D10023012291A100949148DA
:101D100006F085FFFFF79FFF80213046FFF7A9FF00
:101D20000028F9D1814E1021304601F032FAA0B3DB
:101D3000474610213046FFF79CFF40B3142003F0C4
:101D40007AFCCBF8A4521021304601F022FA90B36D
:101D5000C7F898521021304601F01BFA60B3C9F859
:101D600098521021304601F014FA38B3CAF8A05244
:101D70001021304601F00DFA0028DAD100230122AB
:101D800075A10094734806F04AFFFFF764FF102125
:101D90003046FFF76EFF0028F9D1654F4FF400463B
:101DA0003146384601F0F5F9E8BB50E00023012246
:101DB0006AA10094ABE70CE010E000E013E0002320
:101DC000012267A10094A2E70023012265A10094EB
:101DD0009DE70023012264A10094D3E700230122A0
:101DE00062A10094CEE70023012261A10094C9E71B
:101DF000142003F020FCCBF8A4523146384601F001
:101E0000C8F9002864D0C8F898523146384601F025
:101E1000C0F9002863D0C9F898523146384601F01D
:101E2000B8F9E8B300E006E0CAF8A05231463846F7
:101E300001F0AFF9A8B331463846FFF71AFF002882
:101E4000D6D131463846FFF714FF0028F9D1394E74
:101E50008021304601F09DF9002837D05746802177
:101E60003046FFF706FF58B3142003F0E4FBCBF82D
:101E7000A4528021304601F08CF970B3C8F8985212
:101E80008021304601F085F940B3C9F8985280218D
:101E9000304601F07EF9B0B3C7F8A052802101E0CE
:101EA00022E026E0304601F074F90028D7D1002363
:101EB000012230A10094274806F0B1FEFFF7CBFEC7
:101EC00080213046FFF7D5FE0028F9D1BDE8F88F14
:101ED0000023012228A100940FE015E019E000235F
:101EE000012226A1009408E00023012224A10094ED
:101EF00003E00023012223A10094164806F08FFE80
:101F0000FFF7A9FE9DE709E0002301221EA100942E
:101F1000D1E7002301221DA10094CCE70023012278
:101F20001BA10094C7E7000000040240000002402B
:101F30000018024000080240001002400000414228
:101F40000080404200004242000040424C0000201D
:101F50002A0000007804002030000000310000005A
:101F6000340000003700000032000000350000009F
:101F7000380000004400000033000000360000007C
:101F80003900000023000000410000004200000072
:101F900043000000F0B5EE4D0023012411B1C5F857
:101FA000944201E0C5F89432EA4EC6F89832EA4A03
:101FB0000021C2F89832070602D5C2F8A04201E01B
:101FC000C2F8A032C2F898424006491C000EC9B2BD
:101FD0000829EED3C6F89842C5F89442F0BD10B572
:101FE0000446B031C8B20021FFF7D4FF102040EA08
:101FF00014100021FFF7CEFF04F00F00BDE81040E1
:1020000040F001000021C5E700B500218D20FFF759
:10201000C1FF00211420FFF7BDFF0021AF205DF8B4
:1020200004EBB7E700B500218D20FFF7B3FF0021D7
:102030001020FFF7AFFF0021AE205DF804EBA9E709
:1020400030B5002505F1B000C0B20021FFF7A2FFB6
:1020500000210846FFF79EFF00211020FFF79AFF9E
:10206000002401210020FFF795FF641CE4B2802CBE
:10207000F7D36D1CEDB2082DE4D330BDF0B5203A96
:1020800000240F468446D5B27F2802D98F1CA4466F
:10209000FFB239466046FFF7A2FFB04E04EB0510D1
:1020A0000121305CFFF776FF641CE4B2082CF5D305
:1020B0007F1CF9B26046FFF792FF002404EB051085
:1020C00030440121007AFFF765FF641CE4B2082C5C
:1020D000F4D3F0BD0346012000E05843491EC9B2C5
:1020E000FBD270472DE9F0478046002708981D462F
:1020F00091468A463C46460821E0281B401EC1B254
:102100000A20FFF7E7FFB9FBF0F00A21B0FBF1F27C
:1021100001FB120027B9691E8C4201DA30B1012798
:102120003030C2B206FB0480C0B203E006FB04807C
:10213000C0B220225146FFF7A1FF641CE4B2AC42BA
:10214000DBD3BDE8F087F0B517460E460446002500
:102150000CE031462046FFF791FF0834E4B2782CBA
:1021600002D90024B61CF6B26D1CEDB27A5D002ACD
:10217000EFD1F0BDF0B515460E460746FFF72FFF2D
:102180007748002400EB85150121285DFFF702FF49
:10219000641CE4B2102CF7D3761CF1B23846FFF77A
:1021A0001EFF00242819012190F82000FFF7F2FEFD
:1021B000641CE4B2102CF5D3F0BD2DE9F0431F46AA
:1021C00094460E4681460025DDF81C8011E031461C
:1021D0004846FFF704FF4C4607E018F805000121C8
:1021E0006D1CFFF7D7FE641CE4B26445F5D3761C82
:1021F000F6B2BE42EBD3BDE8F0837CB501211520D9
:1022000001F079F94FF41460012600908DF8046014
:1022100003208DF8050000248DF806408DF8074056
:102220006946504800F064FF2020009069464E48FF
:1022300000F05EFF4020009069464C4800F058FFD7
:10224000454DC5F8AC62642005F52B7503F0F3F934
:102250002C60C82003F0EFF92E600021AE20FFF7BC
:1022600099FE00210846FFF795FE00211020FFF798
:1022700091FE00214020FFF78DFE00218120FFF715
:1022800089FE0021CF20FFF785FE0021A120FFF766
:1022900081FE0021C820FFF77DFE0021A620FFF768
:1022A00079FE0021A820FFF775FE00213F20FFF7EF
:1022B00071FE0021D320FFF76DFE00210846FFF7D5
:1022C00069FE0021D520FFF765FE00218020FFF781
:1022D00061FE0021D920FFF75DFE0021F120FFF70C
:1022E00059FE0021DA20FFF755FE00211220FFF7EA
:1022F00051FE0021DB20FFF74DFE00214020FFF7BB
:1023000049FE00212020FFF745FE00210220FFF7B3
:1023100041FE00218D20FFF73DFE00211420FFF734
:1023200039FE0021A420FFF735FE0021A620FFF78B
:1023300031FE0021AF20FFF72DFE0021AF20FFF777
:1023400029FEFFF77DFE00210846FFF748FE7CBD11
:1023500000004242000040420000414202CE00081C
:102360004E00002000080240001002400000024021
:1023700070B588B00024029403940494FFF760FEC3
:1023800028A200210820FFF7DEFE05AD002206ABE3
:1023900011462848CDE9004506F0BEFA064626A1BA
:1023A00009F0CEF800282AD024A1304609F0C8F858
:1023B00068B121A1304609F0C3F840B102A809F084
:1023C00071F8052809D8314602A809F08AF802AA4E
:1023D00003212820FFF7B7FED8E7FFF77DFB062291
:1023E00002A91748FFF7B2FBFFF72AFE15A200214A
:1023F0000820FFF7A8FE4FF4966003F01CF908B020
:1024000070BD3EB50446062269460D48FFF7BDFB88
:102410006946204609F094F808B100203EBD0EA0A0
:102420003EBD0000456E7465722050617373776F16
:1024300072640000780400204200000041000000A7
:10244000000001084F7665725772697465207375D4
:102450006363657373000000737563636573730072
:102460001FB5FFF7EDFD26A200210820FFF76BFE48
:1024700026A202210820FFF766FE27A204210820D9
:10248000FFF761FE28A206210820FFF75CFE00206E
:1024900002A9CDE900010246014603AB254806F03A
:1024A0003BFA040016D024A109F04AF8A0B123A1F8
:1024B000204609F045F8C8B121A1204609F040F8AE
:1024C000002807D1FFF7BCFD1EA200210820FFF75E
:1024D0003AFE002004B010BDFFF7B2FD1CA200219F
:1024E0000820FFF730FEFEF7AAFFF2E7FFF7A8FD8E
:1024F0001CA200210820FFF726FEFFF739FFE8E7BE
:1025000031202D3E46696E676572000032202D3EF7
:10251000524649440000000033202D3E5061737341
:10252000776F72640000000042202D3E4578697488
:10253000000000007804002031000000330000009B
:10254000420000004578697420526F6F74210000CA
:10255000456E726F6C6C2046696E67657250726969
:102560006E7400004F7665727772697465205061F1
:102570007373776F7264000030B4824C20706170A6
:10258000A270E370214630BC002002F062B808B5AA
:102590008DF802208DF801108DF800308DF80300C1
:1025A0006946002002F0CFF808BD70B5002002F0A7
:1025B0003AFA042002F016FA002002F024FA012070
:1025C00002F031FA0121880302F0F7FB4FF480603A
:1025D00002F01CFC4FF48004204602F0D0FF694951
:1025E0000025083108200C600D71487101248C71A0
:1025F000084602F06BFF63480321001F01700221AF
:1026000041708570C470BDE8704000F0B2BC10B578
:1026100001210C07204600F08CFF0121204600F02C
:1026200088FF012002F048FC002002F079FBA0F5B1
:102630001941993927D0012000F054FE412000F0C3
:1026400019FE0028FAD04FF4807000F002FF01203C
:1026500000F014FF01F0FEFE4B487F214160FF2196
:1026600081600021016001F090FF002305222121FB
:102670001420FFF781FF0123172203211420FFF705
:1026800086FFFFF792FF002010BD2DE9F0410C46B8
:1026900080464FF480751E4617460021284602F0FA
:1026A0005BF93848A9050470477086700024C4702F
:1026B00035480C3080F80C80C0E9014131490C38B4
:1026C000091F00F10C024968C1602946204602F04A
:1026D000A9F82F01384602F0BCFB6E02304602F02A
:1026E0004EFF0121384602F068FB0121284602F026
:1026F00033F924480821083006600471417101242F
:10270000847102F0E3FE1F482921001F017002219D
:1027100041708170C470BDE8F04100F02ABC10B572
:102720001849012001F0E5FF16490120091D02F0BA
:1027300058F8BDE810404FF47A7002F07CBF10B535
:102740004FF48044204602F06DFB012807D120465B
:1027500002F07FFB2002BDE8104002F010BF10BD68
:1027600010B54FF48074204602F045FB012802D1D9
:10277000204602F04BFBBDE810404FF4003002F061
:10278000FEBE0000540300201413002010B50121E8
:10279000084600F0D8FE994840F2E731984C416075
:1027A00044F29F110180002141800146204601F042
:1027B000F1F901221146204601F075FD0121204664
:1027C00001F060FA8F48192101700F21417081706A
:1027D0000121C170BDE8104000F0CBBB10B5012154
:1027E000084600F0A6FE854840F2CF714FF08044C5
:1027F000416042F2CF010180002141800146204624
:1028000001F0C8F901221146204601F04CFD0121DA
:10281000204601F037FA7B481C2101700F214170DE
:1028200081700121C170BDE8104000F0A2BB10B55D
:102830000121022000F07DFE704841F28731724C88
:10284000416042F2CF0101800021418001462046D3
:1028500001F0A0F901221146204601F024FD0121DA
:10286000204601F00FFA67481D2101700F214170C9
:1028700081700121C170BDE8104000F07ABB10B535
:102880000121022000F05FFE5C4844F61F615F4CAE
:10289000416044F29F1101800021418001462046A1
:1028A00001F078F901221146204601F0FCFC0121DB
:1028B000204601F0E7F953482C2101700F214170A7
:1028C00081700121C170BDE8104000F052BB7FB59E
:1028D0000D4604460121202000F02BFE019400202B
:1028E000ADF800504A4CADF80800ADF8020069465A
:1028F000204601F04FF901221146204601F0D3FC99
:1029000037208DF80C0001208DF80D008DF80E0099
:102910008DF80F0003A800F02CFB7FBD10B5384CDC
:102920000121204601F0D3FC01280CD13948D0F810
:10293000A41281F00101C0F8A4122046BDE81040A5
:10294000012101F0D0BC10BD10B501218C0720463B
:1029500001F0BDFC01280CD12E48D0F8A81281F05E
:102960000101C0F8A8122046BDE81040012101F085
:10297000BABC10BD10B5244C0121204601F0A7FCC3
:1029800001280CD12448D0F8B41281F00101C0F81C
:10299000B4122046BDE81040012101F0A4BC10BDD6
:1029A00010B51A4C0121204601F091FC01280CD1F0
:1029B0001948D0F8B81281F00101C0F8B8122046C9
:1029C000BDE81040012101F08EBC10BD10B5104CC7
:1029D0000121204601F07BFC00280ED00F48018821
:1029E00041F4004101800121204601F07CFC204699
:1029F000BDE81040002101F045B910BD30130020A2
:102A00000000014064030020000400400004014075
:102A1000001400400080424200004242680300204F
:102A200070B5554C40F22551204600F0F0FF0028CB
:102A30001AD0204600F054FF504DC4B2288801043B
:102A400012D4B0F5C87F10D24D4E0021304601F0AF
:102A5000E3F8288818B90121304601F013F94949F3
:102A600028880C54401C288070BD40F40040FAE7D0
:102A70002DE9F0438146012187B0084600F03BFD77
:102A80000121480400F055FD3B4F384600F048FE58
:102A9000DFF8F48007220221404600F09DFB072268
:102AA0000321404600F098FB02208DF814008DF8B9
:102AB000150000240C268DF81640012504968DF88B
:102AC000175004A9404600F013FBADF80440ADF8E0
:102AD0000840CDF80090ADF80640ADF80C40ADF8D8
:102AE0000A606946384600F060FE0121384600F071
:102AF000CDFE012240F22551384600F066FF262027
:102B00008DF818008DF819508DF81A408DF81B506B
:102B100006A800F02EFA42F2CF0140F2E730FFF7AC
:102B2000D6FE164800210480154801F0ABF807B026
:102B3000BDE8F0830FB415482DE9F04107AA0699C6
:102B400008F0E4FA114808F0ADFC85B200240A4E02
:102B50000E4F0BE04021304600F04FFF0028F9D027
:102B6000395D304600F0B8FE641CA4B2AC42F1D32B
:102B7000BDE8F0015DF814FB00440040680300204C
:102B800000140040D0140020000002404013002038
:102B9000F0B5064687B00121022000F0ACFC01210F
:102BA000880400F0C6FC9C4D07220A21284600F04C
:102BB00013FB07220B21284600F00EFB02218DF8A3
:102BC00014108DF815104FF44060002404908DF817
:102BD000164001278DF8177004A9284600F088FADE
:102BE000ADF80440ADF80640ADF80840ADF80C4033
:102BF0000C208A4CADF80A0000966946204600F089
:102C0000D4FD0121204600F041FE012240F2255171
:102C1000204600F0DAFE27208DF8180003208DF8FA
:102C200019008DF81A008DF81B7006A800F0A1F9A4
:102C300007B0F0BD10B5794C40F22551204600F0A8
:102C4000E6FE002818D0204600F04AFE744AC1B2C1
:102C5000744B108888B1C0F30D04401C80B2195524
:102C60001080C72801D900201080197880B28142D5
:102C700002D140F40040108010BD19700120FAE725
:102C80000146664802881206FCD500F025BE70B5E4
:102C90000D460646002404E0305DFFF7F1FF641C9A
:102CA000A4B2AC42F8D370BD10B50D20FFF7E8FF19
:102CB000BDE810400A20E3E710B500231A4603E000
:102CC000845C6340521CD2B28A42F9DBD843C0B262
:102CD00010BD2DE9F04752480621801CFFF7D7FFB1
:102CE0004F4E30880104FDD5DFF83881C0F30D0563
:102CF0004FF0000998F8020058B14BA008F018FAFC
:102D0000A6F80090C821404608F0F7FB0020BDE877
:102D1000F08749A008F00CFA04244C4FAD1E0CE0DB
:102D200018F80410384600F0D7FD4021384600F06E
:102D300064FE0128F9D1641CA4B2AC42F0DB44A0CB
:102D400008F0F6F9A6F80090C821364808F0D5FB3F
:102D50000120DCE72DE9F041314C08342046217890
:102D6000891EFFF7A9FF607107212046FFF78FFF3B
:102D70002B4E30880104FDD52A4FC0F30D05B878DD
:102D800008B135A00EE038A008F0D2F90424AD1E39
:102D900005E0395D3AA008F0CBF9641CA4B2AC425E
:102DA000F7DB2BA008F0C4F900203080BDE8F0412B
:102DB000C8211C4808F0A1BB70B5194C0F3420463F
:102DC0002178891EFFF778FFA07108212046FFF7C0
:102DD0005EFF134D28880104FDD5124EC0F30D048B
:102DE000B07808B127A00DE02AA008F0A1F9E41EF0
:102DF00004E0315D22A008F09BF9641EA4B2042C0B
:102E0000F7D813A008F094F900202880BDE870409E
:102E1000C821044808F071BB00040240004800408B
:102E20006A03002060160020C9A8C3E8C9E8B1B849
:102E3000CAA7B0DC0D0A00000D0AC9A8C3E8C9E89A
:102E4000B1B8D0C5CFA2CEAA3A0D0A0000100140F9
:102E50000D0A0D0A000000000D0AC7EBC7F3CAA750
:102E6000B0DC0D0A000000000D0AC7EBC7F3B3C9C0
:102E7000B9A6A3ACC6E44154513A30780000000032
:102E8000257800000D0AB6C1BFA8CAA7B0DC0D0A9C
:102E9000000000000D0AB7C0C5F6D7B2B3C9B9A685
:102EA000A3ACC6E4BFA8BAC53A3078001CB501216E
:102EB000082000F020FB4020009000208DF8040046
:102EC0008DF8060003208DF8050001208DF807001D
:102ED0006946144800F00CF91CBD1CB54020009058
:102EE00001208DF8040000208DF806008DF8070001
:102EF00002208DF8050069460A4800F0F9F81CBD6B
:102F00001CB54020009000208DF804008DF80600CC
:102F10008DF8070002208DF805006946014800F091
:102F2000E7F81CBD000C02400948804709480047EB
:102F3000FEE7FEE7FEE7FEE7FEE7FEE7FEE7FEE769
:102F4000FEE7FEE704480549054A064B70470000C6
:102F5000D30B0008890100089034002090940020D1
:102F600090540020905400202849084328490860C4
:102F7000704730B50F23C27801780125FAB1244A91
:102F8000126801F1E02102F4E062C2F5E062C2F3EE
:102F90000722C2F10404D3404278A24084781C4046
:102FA0001443220181F80024007800F01F018D40B5
:102FB0004009800000F1E020C0F8005130BD01F070
:102FC0001F0085404809800000F1E020C0F88051D2
:102FD00030BD104A114001430D48001F0160704789
:102FE0000B4A121D0029116801D0014300E0814302
:102FF000116070474FF0E0210428086903D020F0E9
:1030000004000861704740F00400FAE70000FA0588
:103010000CED00E080FFFF1F774910B5884206D114
:103020000121084600F099FA002101205BE0734974
:10303000884206D10121022000F08FFA00210220EF
:1030400051E06F49884206D10121042000F085FA41
:103050000021042047E06B49884206D10121082065
:1030600000F07BFA002108203DE06749884206D144
:103070000121102000F071FA0021102033E0634993
:10308000884206D10121202000F067FA002120208B
:1030900029E05F49884206D10121402000F05DFA15
:1030A000002140201FE05B49884206D10121802099
:1030B00000F053FA0021802015E05749884202D1E0
:1030C000012184150AE05549884202D101214415A5
:1030D00004E0534988420AD101210415204600F03A
:1030E0003CFA00212046BDE8104000F036BA10BD81
:1030F000F0B5002201274FF0030C0B6807FA02F528
:103100002B40AB422CD1066853000CFA03F4A643C3
:1031100006600E79D0F800E09E4046EA0E06066092
:103120000E79012E01D0022E12D18668A643866048
:103130004E79D0F808E09E4046EA0E068660466862
:10314000AE43466045688E799640B6B235434560D9
:10315000C568A543C560CC799C40C3681C43C46066
:10316000521C102AC9D3F0BD4FF6FF710160002137
:10317000017141718171C171704708B541F48032AC
:103180000092C261C1610099C161C169C0690090CA
:1031900008BD0246002012690A4200D00120704793
:1031A000006980B270470246002052690A4200D08E
:1031B00001207047406980B27047018370474183A6
:1031C00070470AB10183704741837047416170477E
:1031D00042694A40426170474B07DB0E9A40C9087A
:1031E00010B500EB8100016A0F249C40A1430162ED
:1031F000016A1143016210BD000002400004024058
:1032000000080240000C024000100240001402407E
:1032100000180240001C024000200240002402402E
:1032200000280240F848016841F001010160F64AB7
:103230000021083211600268F44B1A400260031D3D
:10324000F34A1A60F04BF34A84331A60F04A103A9A
:103250001B1D1A60026822F480220260EA480C30CA
:103260000160181D01607047E7490022891C0A703F
:103270000870704702460020510901290CD002292C
:103280000CD0E1497431096802F01F020123934018
:103290000B4200D001207047DB49F4E7DA49703176
:1032A000F1E718B500204FF4A04400903120FFF75B
:1032B000E1FF0099491C0091A14201D00028F5D0FE
:1032C0003120FFF7D7FF002800D0012018BDCE4ADB
:1032D000116821F0F80141EAC00010607047CE4942
:1032E00008607047C849002270310A700A700128CE
:1032F00002D0042801D1052008707047C749086032
:10330000704741EA82115A0810B5C54B029C03EB85
:1033100002421143014341EA0460BB49091D0860B0
:1033200010BDBD4908667047800140EA0170B6498A
:10333000843108607047B84988667047800140EA68
:103340000160B14940EA0270883108607047B249B3
:1033500008677047B049C8647047AB4B08331A68B8
:10336000084322F0EC62104318607047A64B083304
:103370001A68084322F07842104318607047A24A46
:103380000832116821F003010143116070479E4823
:103390000830006800F00C0070479B4A0832116842
:1033A00021F0F001014311607047974A083211681B
:1033B00021F4E051014311607047934A08321168CB
:1033C00021F4604141EAC0001060704770B58E4B37
:1033D00008331968934C11F00C0104D066100429CD
:1033E00003D0082903D004601BE0066019E0864A78
:1033F000121D1168C1F38055116801F03F0115B12C
:10340000B6FBF1F101E0B4FBF1F114681268C4F30A
:1034100088146143C2F30142521C5200B1FBF2F125
:10342000016019680F2202EA11117F4A545C016899
:10343000E14041601C68072505EA9424145D21FAE7
:1034400004F484601B6805EA5333D25CD140C16048
:1034500070BDC0F30121032908D16B4B08331968F3
:10346000724A21F4F81102400A431A606649703129
:103470000A68C0F30B0002430A6070476749443989
:103480000860704765494039086070476249C1F873
:103490005C0170475C4A8C321168401E21F01F01AC
:1034A000014311607047584A8C3211686FF0FF0376
:1034B00021F4F85103EB0020084310607047524A92
:1034C0008C32116821F440110143116070474E4A5B
:1034D0008C32116821F440010143116070474A4A5F
:1034E0008C32116821F4403101431160704750491A
:1034F000C1F8E0017047444A30320029116801D018
:10350000014300E08143116070473F4A3432002993
:10351000116801D0014300E08143116070473A4ACD
:1035200038320029116801D0014300E08143116065
:103530007047354A40320029116801D0014300E04C
:10354000814311607047304A44320029116801D02C
:10355000014300E08143116070472B4A103200297B
:10356000116801D0014300E0814311607047264A91
:1035700014320029116801D0014300E08143116039
:103580007047214A18320029116801D0014300E038
:103590008143116070471C4A20320029116801D014
:1035A000014300E0814311607047174A243200292B
:1035B000116801D0014300E0814311607047124A55
:1035C00050320029116801D0014300E081431160AD
:1035D00070470D4A54320029116801D0014300E0C0
:1035E000814311607047084A58320029116801D0A0
:1035F000014300E0814311607047034A60320029B3
:10360000116817D0014316E000380240FFFFF6EAC8
:10361000103000240030002000004742800E474256
:103620000000FFFF0024F40081030020FFFCFF0FD7
:1036300000104742814311607047194A0029116800
:1036400001D0014300E081431160704714490C31FF
:103650000128086803D020F008000860704740F097
:103660000800FAE70E4A573A0029117801D00143C1
:1036700000E081431170704709481030016841F043
:103680008071016070470146054A0020583A12686F
:103690000A4200D00120704701495639087070472E
:1036A0006438024010B501218C032046FFF77DFFEE
:1036B0002046BDE810400021FFF777BF144908609D
:1036C000704714490862704710B58A0721F0030457
:1036D0001149120F21440F23D1F8084893409C430D
:1036E000C1F80848D1F8083890400343C1F80838B9
:1036F00010BD0849C1F8DC007047084908607047F0
:103700000349002020310968C90500D50120704710
:1037100000380140000027420030014000042742E9
:10372000CD4910B5884206D101211020FFF73DFF99
:103730000021102020E0C949884202D101214C0417
:1037400029E0C749884202D101218C0423E0C54900
:10375000884202D10121CC041DE0C349884202D134
:1037600001210C0517E0C149884209D1012120201F
:10377000FFF71BFF00212020BDE81040FFF715BF19
:10378000BB49884202D101218C0704E0B949884233
:103790000AD1012144052046FFF7FDFE2046BDE881
:1037A00010400021FFF7F7BE10BD7FB50446008A28
:1037B0000D46C98820F4405001432182A08941F27E
:1037C0000C618843A9882A8911436A8902431143FD
:1037D000A181A08A20F44071A8890843A08268468C
:1037E000FFF7F4FD9C48844202D0A048844201D1F6
:1037F000039800E00298A189090400EBC00101EBE5
:103800000010296801D5490000E08900B0FBF1F003
:103810006422B0FBF2F109010B096FF018056B434C
:1038200000EB8300A3891D044FF0320306D503EBA0
:10383000C000B0FBF2F000F0070005E003EB001061
:10384000B0FBF2F000F00F00084320817FBD4FF481
:103850001651016000218180C18001810C224281CA
:103860008181704710B5028A4C8822F470630A88FF
:1038700022438C88C9880C4322431A43028210BD1C
:103880000021018041808180C180704700298189A9
:1038900002D041F4005101E021F4005181817047D0
:1038A000028B02F47F420283028B0A430283704739
:1038B0000029818902D041F4004101E0C1F30E01E9
:1038C000818170470029818A02D041F4006101E0C2
:1038D00021F4006181827047C1F308018180704743
:1038E0008088C0F308007047028A22F00F0202822B
:1038F000028A0A43028270470029818902D041F07E
:10390000020101E021F0020181817047828922F4E5
:103910000062828182890A4382817047028A22F092
:1039200020020282028A0A43028270470029018A29
:1039300002D041F4804101E021F4804101827047CE
:10394000818941F00101818170470029818A02D07B
:1039500041F0080101E021F0080181827047028BEB
:10396000D2B20283028B42EA01210183704700290F
:10397000818A02D041F0200101E021F02001818202
:1039800070470029818A02D041F0100101E021F046
:10399000100181827047828A22F004028282828A28
:1039A0000A43828270470029818A02D041F00201D5
:1039B00001E021F0020181827047002A828A01D051
:1039C0000A4300E08A438282704710B5C1F3421374
:1039D00001F01F040121A140012B07D0022B07D0C9
:1039E0001430002A026805D00A4304E00C30F8E7DE
:1039F0001030F6E78A43026010BD024600201288AC
:103A00000A4200D001207047C9430180704770B559
:103A100001F01F0501260024C1F3421306FA05F246
:103A2000012B0FD0022B0FD0838A4FEA112100887F
:103A3000134206FA01F600EA060001D000B10124A3
:103A4000204670BD8389F0E7038AEEE70A0A012168
:103A50009140C9430180704700100140004400407C
:103A600000480040004C004000500040001401405D
:103A700000780040007C0040FE4910B5884206D125
:103A800001210846FFF791FD002101205BE0B0F124
:103A9000804F09D0F84988420DD101210220FFF75B
:103AA0007AFD0021022070E001210846FFF773FD36
:103AB0000021012069E0F149884206D1012104205A
:103AC000FFF769FD002104205FE0ED49884206D13F
:103AD00001210820FFF75FFD0021082055E0E9499A
:103AE000884206D101211020FFF755FD002110204A
:103AF0004BE0E549884206D101212020FFF74BFD2C
:103B00000021202041E0E149884206D10121022024
:103B1000FFF74BFD0021022015E0DD49884202D16C
:103B200001210C040AE0DB49884202D101214C0446
:103B300004E0D94988420AD101218C042046FFF7CC
:103B400034FD00212046BDE81040FFF72EBDD349CB
:103B5000884206D101214020FFF71DFD00214020B1
:103B600013E0CF49884206D101218020FFF713FDE1
:103B70000021802009E0CB4988420AD18415012127
:103B80002046FFF708FD00212046BDE81040FFF762
:103B900002BD10BD30B50288B64CBC4DA0420DD060
:103BA000A8420BD0B0F1804F08D0B34B984205D05B
:103BB000B24B984202D0B24B984203D122F070032C
:103BC0004A881A43AF4B984206D0AF4B984203D075
:103BD00022F440730A891A4302804A68C2620A8842
:103BE0000285A04201D0A84201D1897A0186012133
:103BF000818230BD4FF0FF314160002101800181A1
:103C0000418081727047018582827047028822F06C
:103C100070020A430280704741627047C162704778
:103C2000406A7047008D70470029018802D041F03A
:103C3000020101E021F002010180704700290188A2
:103C400002D041F0040101E021F00401018070473D
:103C50000029018802D041F0800101E021F08001BB
:103C600001807047028822F00802028002880A431D
:103C700002807047028822F44072028002880A4360
:103C8000028070470029018802D041F0010101E063
:103C900021F001010180704730B5028C22F0010251
:103CA0000284028C8388048B22F0020224F07305C4
:103CB0000C882C438D8915434A882A436D4DA842B0
:103CC00002D0724DA8420DD122F00805CA8923F412
:103CD00040732A4322F004058A882A430D8A1D4333
:103CE0004B8A2B438380048389684163028430BDFF
:103CF00070B5028C22F010020284028C8388048B3F
:103D00000D8824F4E6464FF6FF7404EA0525354392
:103D10008E8922F0200204EA061616434A8804EA35
:103D200002123243534EB04202D0584EB04215D127
:103D300022F08006CA8923F4406304EA0212324367
:103D400022F040068A8804EA021232430E8A04EA0C
:103D500086061E434B8A04EA83033343838005832C
:103D600089688163028470BD70B5028C22F4807210
:103D70000284028C8388848B0D8824F0730425438D
:103D80008E894FF6FF7422F4007204EA0626164369
:103D90004A8804EA02223243364EB04202D03B4EF9
:103DA000B04215D122F40066CA8923F4405304EAD4
:103DB0000222324322F480668A8804EA02223243D5
:103DC0000E8A04EA06161E434B8A04EA03133343A1
:103DD000838085838968C163028470BD70B5028C5D
:103DE00022F480520284058C8288838B0C8823F411
:103DF000E6464FF6FF7303EA0424344325F40056E5
:103E00008D8903EA053535434E8803EA06362E438D
:103E1000184DA84202D01D4DA84205D122F480457C
:103E20000A8A03EA82122A438280848389680164B1
:103E3000068470BD00210180418081808160818184
:103E4000C18101824182704730B50124058C00F1A7
:103E500018038C40A543058431B308292CD0091FD1
:103E6000C1F34E001844016848F6FF731940016021
:103E700001681AE000000140000400400008004012
:103E8000000C0040001000400014004000040140FD
:103E9000004001400044014000480140001800403B
:103EA000001C00400020004006E04FF6FF7303EACC
:103EB00002221143016030BD03EB510001684FF64F
:103EC0008F73194001600168F3E7416370478163B4
:103ED0007047C163704701647047028B22F0700223
:103EE0000A4302837047028B4FF6FF7322F4E042CD
:103EF00003EA0121114301837047828B22F0700293
:103F00000A4382837047828B4FF6FF7322F4E042AC
:103F100003EA0121114381837047028B22F00802DA
:103F20000A4302837047028B4FF6FF7322F400624C
:103F300003EA0121114301837047828B22F00802BA
:103F40000A4382837047828B4FF6FF7322F400622C
:103F500003EA0121114381837047028B22F004029E
:103F60000A4302837047028B4FF6FF7322F480628C
:103F700003EA0121114301837047828B22F004027E
:103F80000A4382837047828B4FF6FF7322F480626C
:103F900003EA0121114381837047028B22F08002E2
:103FA0000A4302837047028B4FF6FF73C2F30E027F
:103FB00003EA0121114301837047828B22F08002C2
:103FC0000A4382837047828B4FF6FF73C2F30E025F
:103FD00003EA0121114381837047028C22F002021F
:103FE0000A4302847047028C22F008020A430284CA
:103FF0007047028C4FF6FF7322F0200203EA011192
:10400000114301847047028C4FF6FF7322F0800247
:1040100003EA0111114301847047028C4FF6FF73CC
:1040200022F4007203EA0121114301847047028CDB
:104030004FF6FF7322F4006203EA01211143018469
:104040007047028C4FF6FF7322F4005203EA0131ED
:1040500011430184704710B50123048C8B409C43AD
:104060000484038C8A401343038410BD10B50423D9
:10407000048C8B409C430484038C8A401343038448
:1040800010BD828B22F440628283828B4FF6FF73D5
:1040900003EA01210A4382837047828B22F00C02DB
:1040A0008283828B0A4382837047028B22F44062B0
:1040B0000283028B4FF6FF7303EA01210A43028356
:1040C0007047F0B5048C24F010040484078B068C30
:1040D0004FF6FF7404EA011527F4734704EA03312D
:1040E000394304EA02220A4326F0A001294341F0A1
:1040F000100102830184F0BD028B22F00C020283C6
:10410000028B0A43028370472DE9F0410C460E886A
:104110004988A288238905460EB3042E26D0082E8E
:104120002E8C4FF6FF7028D026F480562E84AF8B4D
:104130002E8C00EA022200EA013127F473473A4349
:1041400000EA0330104326F420420A4342F480512F
:10415000A8832984E1882846BDE8F04191E700F072
:1041600062F9E1882846BDE8F041C5E7FFF7A9FFFD
:10417000E1882846BDE8F04197E726F480762E8452
:10418000AF8B2E8C00EA012100EA0310104327F0C8
:10419000F307384326F420620A4342F48071A8836F
:1041A0002984E1882846BDE8F04176E700210180B6
:1041B000418001228280C180018170472DE9F04158
:1041C0000C46002649880746012501B90226A28827
:1041D000012A00D10225208823890028384610D0E2
:1041E000FFF76FFFE1883846FFF75FFF23892A4614
:1041F0003146384600F017F9E1883846BDE8F0410D
:104200007AE700F010F9E1883846FFF775FF238957
:104210002A4631463846FFF754FFE1883846BDE864
:10422000F04142E7406B7047806B7047C06B70474E
:10423000006C704710B50A884B88CC881A438B886D
:1042400023431A430B891A434B8989891A430A432A
:10425000A0F8442010BD0021018041808180C180F0
:104260000181418181817047002930F8441F02D0CB
:1042700041F4004101E0C1F30E01018070470029C3
:10428000818802D041F0040101E021F00401818025
:1042900070470029818802D041F0010101E021F03E
:1042A000010181807047002A828901D00A4300E021
:1042B0008A43828170478182704702460020128AB9
:1042C0000A4200D001207047C9430182704702466C
:1042D0000020138A92890B4202EA010202D0002ACE
:1042E00000D001207047C943018270471143A0F8F4
:1042F00048107047002A828901D00A4300E08A43AF
:10430000828170470029818802D041F0080101E0D4
:1043100021F0080181807047018921F007010181A6
:104320007047028922F070020A430281704700B58B
:104330000346FFF7F6FF188940F00700188100BD1B
:1043400070B516460D46602904464FF0010231460D
:104350000AD000F068F829462046FFF7E2FF2089DE
:1043600040F00700208170BDFFF7ABFEF3E730B5EA
:1043700004894FF6FF7505EA03231343E4B20B43A8
:104380002343038130BD10B50446FFF7F0FF2089B9
:1043900040F07700208110BD10B50446FFF7E7FF1D
:1043A000208940F48040208110BD828822F0700274
:1043B000828082880A4382807047028922F0070245
:1043C000028102890A4302817047028922F0800239
:1043D000028102890A430281704770B50589048B06
:1043E000068C25F007050D434FF6FC410C4040F2CA
:1043F00001110C434FF6FF7101EA031126F022066A
:104400001143314305810483018470BD00298188F3
:1044100002D041F0800101E021F0800181807047ED
:10442000A0F85010704770B5048C24F00104048487
:10443000058B048C4FF6FF7606EA0313134325F031
:10444000F3052B4324F00A020A4342F001010383DF
:10445000018470BD18B50020FA4B0090CA20186086
:1044600053201860F7491839086820F0A000086048
:104470004FF400340868009A00F02000521C0092AB
:10448000A24201D00028F5D00868800601D501209D
:1044900000E00020FF21196018BD08B5E94900209F
:1044A000183900900868400612D44FF0FF300860B9
:1044B0008B130868009A00F04000521C00929A4248
:1044C00001D00028F5D00868400601D4002008BDBE
:1044D000012008BD78B50024DA4ECA200094254694
:1044E000306053203060FFF7D8FFE0B3D548243860
:1044F0000460D44942F20110203908600B1D18688D
:1045000000F0070018608D131A1D1068009900F064
:104510000400491C0091A94201D00028F5D0106880
:10452000400729D518681C60C6494FF6FF7010393E
:104530000860091FC4480860C2480C380460001DA8
:104540000460001D0460BF4808300460BD48183096
:104550000460BC4820300460001D04601460B94849
:104560001C30046000E003E0FFF774FF20B1012578
:10457000FF203060284678BD0025F9E7B14818389B
:10458000016821F080010160704770B5AD4E0446AE
:104590000025CA20306053203060FFF77EFFA8B1AD
:1045A000A8481C38016821F04001016001682268B8
:1045B00011430160A348A168143801600168A28812
:1045C00041EA02410160FFF7D9FF0125FF20306079
:1045D000284670BD002101607F214160FF2181607C
:1045E0007047984908B1FF2002E0CA2008605320B4
:1045F0000860704770B5934E05460024CA203060AD
:1046000053203060FFF749FF60B18E481C380168C5
:1046100015B141F0100101E021F010010160FFF738
:10462000ADFF0124FF203060204670BD854ACA21BD
:1046300011605321116083491C390028086802D099
:1046400040F0200001E000F0DF000860FF20106073
:1046500070472DE9F0410C4600267C4F0100207880
:10466000396832464FEA416104D000292FDA00F060
:1046700008FC2DE0002900DBE27000F0F6FB0504E9
:10468000607800F0F2FB45EA0025A07800F0EDFB31
:104690000543E07845EA00456A4CCA202060532073
:1046A0002060FFF7FAFE68B169480540674808389E
:1046B0000560FFF763FF3868800602D4FFF7CAFE83
:1046C00000B10126FF2020603046BDE8F081E27095
:1046D000A078217840EA01456078E178000240EA5C
:1046E00001400543D8E70021C1700170417081701D
:1046F0007047020010B557480C460168544801EA5B
:104700000001C1F305402070C1F30623637001F07E
:104710007F03A3704FF0400303EA1141E1700AD117
:1047200000F0AFFB2070607800F0ABFB6070A07809
:1047300000F0A7FBA07010BD4248001D006843496F
:10474000091F0968704770B50C46002601006078A3
:104750000FD000F096FBA07800F093FBA078E178F2
:1047600040EA014560782178000240EA4130054383
:1047700015E0C10603D520F010000A306070E07823
:1047800000F073FB0504607800F06FFB45EA00253C
:10479000A07800F06AFB0543207845EA4035294CB3
:1047A000CA20206053202060FFF777FE70B12A48AE
:1047B00005402648001F0560FFF7E0FE234800681B
:1047C000800602D4FFF746FE00B10126FF202060DC
:1047D000304670BD01210170817041700021C170AF
:1047E0007047020010B51D480C4601681A4801EADE
:1047F00000014FEA1140E070C1F30423637001F03F
:104800003F03A370C1F3423121700AD100F039FB9C
:10481000E070607800F035FB6070A07800F031FB4C
:10482000A07010BD70B514460D46084A002100283E
:1048300010684FEA406013D000282ADA207800F090
:1048400020FB27E024280040FF007F0008280040CC
:104850007F7F7F00002800403FFFFF0004280040CA
:10486000002800DBE170207800F0FFFA0604607891
:1048700000F0FBFA46EA0026A07800F0F6FA0643BC
:10488000E07846EA0046207B00F0EFFA46EA006056
:1048900010E0E170207B00F0F4FAA0782178E27853
:1048A00040EA01406178090241EA02410843217B64
:1048B00040EA0160A168084361680843F849CA22D8
:1048C0000A6053220A60B5F5807F04D00A1F106089
:1048D000FF20086070BDF24A083AF8E70021C17075
:1048E00001704170817001228160027341607047E4
:1048F00010B514460246B1F5807F2AD0E848001F63
:104900000168C1F305402070C1F30623637001F014
:104910007F03A370402303EA1143E370C1F30563EF
:10492000237301F0804301F08031C4E90113002AB0
:104930000ED100F0A6FA2070607800F0A2FA607044
:10494000A07800F09EFAA070207B00F09AFA207305
:1049500010BDD3480838D3E738B50022D04C0092B8
:10496000CA22226053222260CD4A1C3A00291168D3
:1049700002D00143116012E081431160C84A183A25
:1049800095131168009B01EA10215B1C0093AB4258
:1049900001D00029F5D0116811EA102000D00120C3
:1049A000FF21216038BD10B5BD4BCA241C605324C3
:1049B0001C601143B0F5807F05D0B94824300160F8
:1049C000FF20186010BDB6482030F8E7B0F5807FB2
:1049D00005D0B34824300068C0F30E007047B048DB
:1049E0002030F8E7AE4ACA21116053211160AC496A
:1049F0001C390B6823F007030B600B6803430B6043
:104A0000FF2010607047A649CA220A6053220A603C
:104A1000A34A103A1060FF2008607047A048103881
:104A2000006880B2704718B500219D4B0091CA21E3
:104A30001960532119609A491C390028086803D06D
:104A400040F48060086014E020F4806008609449BD
:104A500018398C130868009A00F00400521C009268
:104A6000A24201D00028F5D00868400701D40020F8
:104A700000E00120FF21196018BD894B10B5CA2242
:104A80001A6053221A60864A1C3A146824F480245F
:104A900014601468084304431460FF20186010BDBC
:104AA0007F481C38006800F4802070477C4B10B5AC
:104AB000CA221A6053221A60794A1C3A146824F4F4
:104AC000E00414601468084304431460FF20186075
:104AD00010BDF0B5724D06460024CA200F4628606E
:104AE00053202860FFF7D9FC30B16D483E430C38A5
:104AF0000660FFF743FD0124FF2028602046F0BD3B
:104B000070B5674E05460024CA20306053203060DF
:104B1000FFF7C3FC60B162481C38016815B141F071
:104B2000800101E021F080010160FFF727FD0124F1
:104B3000FF203060204670BD594ACA2111605321C0
:104B4000116057491C390028086802D040F4000061
:104B500001E020F400000860FF2010607047504A18
:104B6000CA211160532111604D491C390B6823F48F
:104B700000230B600B6803430B60FF20106070473D
:104B8000F0B5474D0023CA242C6053242C60444CBC
:104B9000183C2668F60308D54FF400362768FF0353
:104BA00003D5B34201D05B1CF8E72368DB0306D4CE
:104BB00008433B49104318310860012000E0002001
:104BC000FF212960F0BD364B10B51C3B1A6840F63A
:104BD0000804A24342EA000209B142F400623048EC
:104BE000CA210160532101601A60FF21016010BDDC
:104BF00070B50D462A4914460C310968294A1140FE
:104C0000274A103212684FF63F731A40C1F305432A
:104C10002B70C1F306236B7001F07F03AB70402350
:104C200003EA1141E9700021E170C2F304216170CF
:104C300002F03F01A170C2F342312170002817D168
:104C4000287800F01EF92870687800F01AF968706A
:104C5000A87800F016F9A870607800F012F960707A
:104C6000A07800F00EF9A070207800F00AF920700A
:104C700070BD0B48143000687047094A1C32002987
:104C8000116803D041EA40001060704721EA4000FB
:104C9000FAE7034A1C320029116805D0014304E0F9
:104CA000242800407F7F7F0081431160704779494D
:104CB0000A6822F4C0520A600A6802430A60704718
:104CC00074490A6822F4E0620A600A6802430A60D2
:104CD000704770490A6822F4C0420A600A680243B9
:104CE0000A6070476B490028086802D040F08000D5
:104CF00001E020F0800008607047664900280868DD
:104D000002D020F4004001E040F400400860704709
:104D1000604A08B5103202EB80000090016008BDC7
:104D20005C4908B5103101EB80000090006808BDB7
:104D300058490A6822F480320A600A6802430A600D
:104D4000704754490A6822F400320A600A68024334
:104D50000A6070474F490A6822F480220A600A6894
:104D600002430A60704770B54A4C0022CA231C3CBB
:104D7000236053232360474B343B1D682D0707D521
:104D80009E141D682D0703D5B24201D0521CF8E7CE
:104D90001A6812070DD43F4A383A1268D20608D46E
:104DA00001433C4814380160FFF754FB10B1012067
:104DB00000E00020FF21216070BD30B5354DCA22D2
:104DC0001C3D2A6053222A60324C20F00402383CF9
:104DD0000029304B216800F0040004D01143216009
:104DE0001968014303E09143216019688143196008
:104DF000FF20286030BD024626490020343909686A
:104E0000254B1940114200D00120704780B240F07C
:104E10008000C1431F483438026802F08002114309
:104E2000016070471B4A0021126802F00403194A0E
:104E3000383A126803EAD03302401A43174B1B6812
:104E400003EA101003D00004000C00D00121084632
:104E50007047C0F30F1040F08000C1430F48026854
:104E600002F08002114301607047002103E0491CF9
:104E70000A38C9B2C0B20A28F9D2090740EA11605B
:104E80007047010901EB810100F00F0000EB4100C8
:104E9000C0B27047402800407F3F01000C2800400E
:104EA00010B501210C072046FEF775FB2046BDE832
:104EB00010400021FEF76FBB404908627047404A2E
:104EC000116821F0E0010143116070473B4908611E
:104ED00070473A49C1F8A00070473849C1F8A400AA
:104EE0007047374A116821F440410143116070470F
:104EF0003249086470473149486470473049002896
:104F0000086802D040F4402001E020F4402008600E
:104F100070472A4900B10120C8627047274900B193
:104F2000012088627047254948627047244B10B5BC
:104F30001A6840F60344A24302431A6021480268FB
:104F400042F004020260012905D020BF016821F06F
:104F50000401016010BD30BFF8E7194B10B51A68A5
:104F600040F60344A24302431A601648026842F026
:104F700004020260012905D020BF016821F004016C
:104F8000016010BD30BFF8E70D48016841F0020133
:104F900001600C48016841F00401016030BF7047B6
:104FA000074A0146002052680A4200D0012070479B
:104FB00003490A6842EA80000860704700000E4218
:104FC0000070004010ED00E0F94908707047F849A2
:104FD0000028086802D040F4807001E020F480705E
:104FE00008607047F2490028086802D040F4007059
:104FF00001E020F4007008607047ED49002808685F
:1050000002D040F4806001E020F4806008607047C6
:10501000E748016841F4006101607047E4480168B5
:1050200041F4805101607047E14810300068002869
:1050300005DADF48DF49001D0160DF490160704784
:10504000DB481030016841F0004101607047D849E9
:1050500009200C310A68D20301D5012070470A6883
:10506000D20601D5062070470A68D20501D5022074
:1050700070470A6812F0EF0F01D0072070470968E7
:105080008907FBD50820704708B509208DF8000076
:10509000FFF7DDFF8DF800009DF800000128F7D034
:1050A0009DF8000008BD70B50646002529B101290C
:1050B00028D0022929D04FF44075FFF7E5FF0928D1
:1050C0001FD1BB4C1034206820F440702060206851
:1050D00028432060206820F0F8002060206846F017
:1050E000020108432060206840F480302060FFF710
:1050F000CBFF216821F002012160216821F0F80135
:10510000216070BD4FF48075D7E74FF40075D4E788
:1051100030B504460025FFF7B7FF2CB1012C1DD098
:10512000022C1ED04FF44075092816D1A04C103423
:10513000206820F4407020602068284320602068A8
:1051400040F004002060206840F480302060FFF7C9
:105150009BFF216821F00401216030BD4FF4807570
:10516000E2E74FF40075DFE730B504460025FFF7AE
:105170008BFF2CB1012C1DD0022C1ED04FF440759A
:10518000092816D18A4C1034206820F44070206021
:10519000206828432060206840F0040020602068D8
:1051A00040F480302060FFF76FFF216821F0040198
:1051B000216030BD4FF48075E2E74FF40075DFE702
:1051C00030B504460025FFF75FFF2CB1012C1DD040
:1051D000022C1ED04FF44075092816D1744C10349F
:1051E000206820F4407020602068284320602068F8
:1051F00040F400402060206840F480302060FFF7D9
:1052000043FF216821F40041216030BD4FF48075D7
:10521000E2E74FF40075DFE7F0B516461F46054696
:10522000FFF732FF092815D1614C1034206820F4B3
:1052300040702060206840F440702060206840F09A
:10524000010020602E606F60FFF71EFF216821F0D3
:1052500001012160F0BD70B50D460646FFF714FF51
:10526000092814D1524C1034206820F4407020607A
:10527000206840F400702060206840F00100206049
:105280003560FFF701FF216821F00101216070BD49
:1052900070B50D460646FFF7F7FE092814D1444CB9
:1052A0001034206820F440702060206840F4807042
:1052B0002060206840F0010020603580FFF7E4FEA8
:1052C000216821F00101216070BD70B50D460646D0
:1052D000FFF7DAFE092812D1354C1034206820F48B
:1052E0004070206020682060206840F0010020604D
:1052F0003570FFF7C9FE216821F00101216070BD02
:105300002B4814300068C00705D029482B490830C5
:1053100001602B490160704725481430016841F055
:1053200001010160704730B50D460446FFF7ACFE41
:10533000092807D11E48163001880DB1A14300E0AD
:105340002143018030BD30B50D460446FFF79CFE79
:10535000092807D116481A3001880DB1A14300E091
:105360002143018030BD124A1732117801F07F01CC
:1053700008431070704730B50D460446FFF784FEB1
:10538000092807D10A4A163210880DB1204300E0DF
:10539000A043108030BD30B50D460446FFF774FEC3
:1053A000092811D1024A1A3210885DB120430AE05F
:1053B000003C024023016745AB89EFCD3B2A190829
:1053C0007F6E5D4CA043108030BD10B50446FFF7E2
:1053D0005BFE092801D13548047010BD70B5154633
:1053E0000C460646FFF750FE092808D12F49491EF2
:1053F000087800F00F0004432C4334430C7070BD58
:105400002A49491E0A7822F010020A700A780243DB
:105410000A7070472549491E0A7822F00C020A706A
:105420000A7802430A7070472048401E017841F014
:105430000201017028E61D48401E0068C0F34710B5
:1054400070471A48401C008870471848401D008863
:1054500070471648401C008870471448401D00885B
:105460007047124900200978AA2900D0012070470E
:105470000E48401E007800F00C0070470B4A521F87
:105480000029116801D0014300E081431160704799
:105490000146064A0020093A12680A4200D001205B
:1054A000704702490939086070470000153C024006
:1054B000354900200860091D0860091D0860091DA4
:1054C00008603149314814310860704730B52E4AC0
:1054D0008379016853B313688B431360111D0B6804
:1054E0000468A3430B60017911440B6804682343EB
:1054F0000B60254B083319680468A14319601C1D13
:1055000021680568A94321604179102905D011441B
:105510000A68006802430A6030BD196802681143D6
:105520001960216800680143216030BD0079104492
:1055300002688A43026030BD0021016001710C22C3
:10554000427181717047104910310A6802430A6044
:10555000704701460C4A0020143212680A4200D0FB
:105560000120704708491431086070470146064A17
:105570000020143212680A4200D00120704702490C
:105580001431086070470000003C0140FFFF7F00BD
:10559000374810B50078012807D101F026FA05F048
:1055A000B4F8BDE8104001F02BBA10BD10B56FF093
:1055B0000400FDF71FFD2F482F49304B0068314C88
:1055C000B0FBF1F2B0FBF1F01A802D4A1168B4FB88
:1055D000F1F1414310684FF47A72B2FBF0F0588059
:1055E0004FF0E020026942F002020261416101696C
:1055F00041F00101016110BDF8B54FF0E027002432
:105600007E691E49098800FB01F5684601F05FFAD2
:10561000B969B8698842FCD002D2A1EB000102E06E
:10562000A6EB000211440C440146AC42F1D368469B
:1056300001F086FAF8BD38B504460D48007888B107
:105640001148007870B90D4D6888844205D3B4FBC9
:10565000F0F06A46082104F0FBFE6888B4FBF0F124
:1056600000FB11444FF47A706043FFF7C5FF38BD6B
:10567000C90300200C00002000127A0092030020D1
:10568000D4D5000840420F00C80300201FB568466B
:10569000FDF79CFE019804B010BD10B5FFF7F6FFB2
:1056A00011490A6842F080720A60104900224A607B
:1056B0000A6842F001020A60BDE8104000F076B8C6
:1056C0000A484068704710B50446FFF7DFFF002125
:1056D000074A0B4605F0A3FC02460B462046002174
:1056E00005F09DFC10BD0000FCED00E0001000E0A6
:1056F00040420F0010B500F0DFF804461021694861
:1057000000F0D8F92046BDE8104000F0D9B866494D
:1057100010B500200860FFF7C0FFBDE81040E9E7C2
:10572000FEE770B505460C000ED075B100F0C4F868
:10573000064610225B49284600F0C4FC304600F0C3
:10574000BFF80020208070BDFEE70A20088070BDF1
:1057500070B50C00054612D095B1102100F0A4FCE4
:10576000102810D200F0A8F80646102229464D480D
:1057700000F0A8FC304600F0A3F8002005E0FEE7AA
:105780000A20088070BD4FF47A70208070BDFFF74A
:1057900097BF7047020004D04348006810B1002151
:1057A00002E0FEE74FF4FA61118070473E4908605D
:1057B000704710B500F08BF8183810BD10B500F028
:1057C00086F8103810BD00F082B8F0B50C0E0B0C46
:1057D0000D0A0026354AD0F1FF378E411BD24FF615
:1057E000FF76D0F1FF378E410AD26FF07F45D0F1BE
:1057F000FF308D4101D2105DF0BDD05C0830F0BDAE
:10580000FF23D0F1FF308B4102D2505D1030F0BD4C
:10581000505C1830F0BD4FF6FF740023241A8B4102
:1058200011D26FF07F440023241A8B4105D2000E61
:1058300040EA0120105C2030F0BD000C40EA01403D
:10584000105C2830F0BD0023D0F1FF048B4105D25D
:10585000000A40EA0160105C3030F0BD105C383066
:10586000F0BD08B100F036B80820704708B100F06C
:1058700031B81020704708B100F02CB820207047D4
:1058800000B550EA01020BD0C243521CCB4343F196
:10589000000310401940FFF798FFC0F13F0000BD22
:1058A000402000BD2817002098030020F2D30008F4
:1058B00072B6704762B67047EFF3108072B67047E9
:1058C00080F31088704730BF704720BF7047B0FA30
:1058D00080F0704790FAA0F0B0FA80F0704790FA2C
:1058E000A0F07047A0F14101192902D961381928A7
:1058F00001D80120704700207047A0F1410119290B
:1059000005D92039192902D93038092801D80120B0
:105910007047002070476138192801D8012070476E
:10592000002070474138192801D801207047002015
:1059300070473038092801D801207047002070478F
:105940003038072801D80120704700207047A0F1A7
:105950003001092905D91139052902D961380528ED
:1059600001D80120704700207047202803D0092863
:1059700001D0002070470120704720280BD00D284F
:1059800009D00A2807D00C2805D0092803D00B28F5
:1059900001D0002070470120704720385E2801D8D0
:1059A000012070470020704721385D2801D8012070
:1059B000704700207047A0F120015E2916D82028EA
:1059C00014D00D2812D00A2810D00C280ED0092887
:1059D0000CD00B280AD021391A2907D320391A29CB
:1059E00004D330380A2801D30120704700207047C3
:1059F00041B2002901DB1F2803D97F2801D00020F4
:105A0000704701207047A0F14101192900D82030CA
:105A1000C0B27047A0F16101192900D82038C0B286
:105A2000704700B50B46FFF7F5FF02461846FFF733
:105A3000F1FF824201D1012000BD002000BD000025
:105A4000FD48FE490246C0E9001200218160C160A4
:105A5000016141618161C16101620163C1624162B1
:105A600000F148018163C1634FF4806101644164C6
:105A7000F3480260704710B500231C46641C41EADD
:105A80000323042CFAD310F0030404D109E0521EBE
:105A900000F8011B641C22B1042CF8D301E008C0FB
:105AA000121F042AFBD202E000F8011B521E002A3A
:105AB000FAD110BD0A460021DDE730B4814202D997
:105AC00030BC00F0C5BD10441144401E491E431AAD
:105AD000042B28D300F0030301F00304A34201D1F7
